S01B00004C61625F325F4469676974616C5F325F4C43442E7372656389
S11300000C9434000C9451000C9451000C94510045
S11300100C9451000C9451000C9451000C94510018
S11300200C9451000C9451000C9451000C94510008
S11300300C9451000C9451000C9451000C945100F8
S11300400C9451000C9451000C9451000C945100E8
S11300500C9451000C9451000C9451000C945100D8
S11300600C9451000C94510011241FBECFEFD8E022
S1130070DEBFCDBF11E0A0E0B1E0E4E3F3E002C0F5
S113008005900D92A630B107D9F721E0A6E0B1E0C2
S113009001C01D92A630B207E1F70E948A010C94B8
S11300A098010C940000982F917080FF04C02BB12C
S11300B024602BB903C02BB12B7F2BB9992321F0DA
S11300C02BB124602BB903C02BB12B7F2BB99923FF
S11300D021F02BB124602BB903C02BB12B7F2BB99A
S11300E0992321F02BB124602BB903C02BB12B7FB2
S11300F02BB9992321F02BB124602BB903C02BB168
S11301002B7F2BB9992321F02BB124602BB903C089
S11301102BB12B7F2BB9992321F02BB124602BB960
S113012003C02BB12B7F2BB9992321F09BB1946091
S11301309BB903C09BB19B7F9BB981FF04C09BB15A
S113014098609BB903C09BB1977F9BB982FF04C0A1
S11301509BB190619BB903C09BB19F7E9BB983FF08
S113016004C09BB190629BB903C09BB19F7D9BB9B6
S113017084FF04C09BB190649BB903C09BB19F7B77
S11301809BB985FF04C09BB190689BB903C09BB128
S11301909F779BB986FF04C095B1916095B903C060
S11301A095B19E7F95B9882324F485B1826085B981
S11301B0089585B18D7F85B9089598B19E7F98B9CA
S11301C00E94530088B1846088B98FE79EE3019749
S11301D0F1F700C0000088B18B7F88B908958AB117
S11301E08C6F8AB98BB183708BB984B1836084B905
S11301F085B18C7F85B987B1876087B988B1887FDD
S113020088B980E00E9453002FEF89EF90E02150DD
S113021080409040E1F700C0000080E30E94DD00D0
S11302208FE19EE40197F1F700C0000080E30E9493
S1130230DD008FE19EE40197F1F700C0000080E348
S11302400E94DD008FE99FE00197F1F700C00000F4
S113025088E30E94DD008FE79EE30197F1F700C079
S1130260000088E00E94DD008FE79EE30197F1F72C
S113027000C0000081E00E94DD008FE79EE301974B
S1130280F1F700C0000086E00E94DD008FE79EE3E6
S11302900197F1F700C000008CE00E94DD008FE7B9
S11302A09EE30197F1F700C00000089598B19160B2
S11302B098B90E94530088B1846088B98FE79EE39F
S11302C00197F1F700C0000088B18B7F88B90895C9
S11302D00F931F93CF93DF938C01C0E0D0E003C052
S11302E00E9456012196F801EC0FFD1F80818111B7
S11302F0F7CFDF91CF911F910F910895613021F4D1
S113030081580E94DD000895623019F481540E94DE
S1130310DD0008950E94EF0061E081E00E947E010B
S113032081E40E94560180E091E00E946801FFCFC1
S1070330F894FFCF6B
S1090334617975646100AB
S9030000FC
