S01B00004C61625F325F4469676974616C5F325F4C43442E7372656389
S11300000C9434000C943E000C943E000C943E007E
S11300100C943E000C943E000C943E000C943E0064
S11300200C943E000C943E000C943E000C943E0054
S11300300C943E000C943E000C943E000C943E0044
S11300400C943E000C943E000C943E000C943E0034
S11300500C943E000C943E000C943E000C943E0024
S11300600C943E000C943E0011241FBECFEFD8E048
S1130070DEBFCDBF0E9414010C9430010C9400002B
S113008080FF04C098B1916098B903C098B19E7F75
S113009098B981FF04C098B1926098B903C098B12F
S11300A09D7F98B982FF04C09BB194609BB903C043
S11300B09BB19B7F9BB983FF04C09BB198609BB9A4
S11300C003C09BB1977F9BB984FF04C09BB190612F
S11300D09BB903C09BB19F7E9BB985FF04C09BB1B4
S11300E090629BB903C09BB19F7D9BB986FF04C0FE
S11300F09BB190649BB903C09BB19F7B9BB9882340
S113010024F48BB180688BB908958BB18F778BB948
S1130110089595B19E7F95B90E94400085B1826093
S113012085B98FE79EE30197F1F700C0000085B120
S11301308D7F85B908958AB18C6F8AB987B1836040
S113014087B984B1836084B985B18C7F85B98BB15B
S113015083708BB988B18C7F88B980E00E9440009D
S11301602FEF89EF90E0215080409040E1F700C0EC
S1130170000080E30E9489008FE19EE40197F1F77B
S113018000C0000080E30E9489008FE99FE001978E
S1130190F1F700C0000080E30E9489009FEF29EF7F
S11301A080E0915020408040E1F700C0000088E3E7
S11301B00E9489008FE99FE00197F1F700C00000D9
S11301C08CE00E9489008FE99FE00197F1F700C05D
S11301D0000086E00E9489008FE99FE00197F1F713
S11301E000C0000081E00E948900089595B19160EB
S11301F095B90E94400085B1826085B98FE79EE37E
S11302000197F1F700C0000085B18D7F85B908958D
S1130210613021F481580E9489000895623019F4F4
S113022081540E94890008950E949B0061E081E04E
S11302300E94080188E40E94F6008FE60E94F600FE
S11302408CE60E94F60081E60E94F6008EE60E948B
S1130250F60084E60E94F60081E60E94F600FFCFD5
S1070260F894FFCF3C
S9030000FC
