S01B00004C61625F325F4469676974616C5F325F4C43442E7372656389
S11300000C9434000C943E000C943E000C943E007E
S11300100C943E000C943E000C943E000C943E0064
S11300200C943E000C943E000C943E000C943E0054
S11300300C943E000C943E000C943E000C943E0044
S11300400C943E000C943E000C943E000C943E0034
S11300500C943E000C943E000C943E000C943E0024
S11300600C943E000C943E0011241FBECFEFD8E048
S1130070DEBFCDBF0E9418010C9434010C94000023
S113008080FF04C098B1916098B903C098B19E7F75
S113009098B981FF04C098B1926098B903C098B12F
S11300A09D7F98B982FF04C09BB194609BB903C043
S11300B09BB19B7F9BB983FF04C09BB198609BB9A4
S11300C003C09BB1977F9BB984FF04C09BB190612F
S11300D09BB903C09BB19F7E9BB985FF04C09BB1B4
S11300E090629BB903C09BB19F7D9BB986FF04C0FE
S11300F09BB190649BB903C09BB19F7B9BB9882340
S113010024F48BB180688BB908958BB18F778BB948
S113011008958AB18C6F8AB987B1836087B984B135
S1130120836084B985B18C7F85B98BB183708BB9B9
S113013088B18C7F88B92FEF89EF90E021508040FF
S11301409040E1F700C0000080E390E00E9440008E
S11301508FE19EE40197F1F700C0000080E390E096
S11301600E9440008FE99FE00197F1F700C0000072
S113017080E390E00E9440009FEF29EF80E09150DF
S113018020408040E1F700C0000088E390E00E9436
S113019040008FE99FE00197F1F700C000008CE078
S11301A090E00E9440008FE99FE00197F1F700C0C2
S11301B0000086E090E00E9440008FE99FE00197F4
S11301C0F1F700C0000081E090E00E944000089533
S11301D095B19D7F95B90E94400085B1826085B933
S11301E08FE79EE30197F1F700C0000085B18D7F92
S11301F085B9089595B1916095B90E94400085B183
S1130200826085B98FE79EE30197F1F700C0000093
S113021085B18D7F85B90895613021F481580E949C
S1130220E8000895623019F481540E94E8000895AA
S11302300E94890061E081E00E940C0188E40E9430
S1130240FA008FE60E94FA008CE60E94FA0081E62A
S11302500E94FA008EE60E94FA0084E60E94FA00E8
S10F026081E60E94FA00E4CFF894FFCF7E
S9030000FC
