S01B00004C61625F325F4469676974616C5F325F4C43442E7372656389
S11300000C9434000C943E000C943E000C943E007E
S11300100C943E000C943E000C943E000C943E0064
S11300200C943E000C943E000C943E000C943E0054
S11300300C943E000C943E000C943E000C943E0044
S11300400C943E000C943E000C943E000C943E0034
S11300500C943E000C943E000C943E000C943E0024
S11300600C943E000C943E0011241FBECFEFD8E048
S1130070DEBFCDBF0E9440000C945C000C940000D5
S113008084B1826084B985B1826085B92FEF89E635
S113009098E1215080409040E1F700C0000085B114
S11300A08D7F85B92FEF89E698E1215080409040FB
S10F00B0E1F700C00000E7CFF894FFCF98
S9030000FC
